:0400000054EF03F0C6
:1002000000427920416964616E2C204272657474E9
:100210002C0043687269732C20616E642047616210
:10022000650043617073746F6E650053656E696F2E
:05023000720020000037
:10023600B00ECD6E9D900DC001F00EC002F00FC045
:1002460003F010C004F0E80E056E030E066E000EF5
:10025600076E000E086E35EC02F00150116E02506A
:10026600126E0350136E0450146E156A166A176ADE
:10027600186A5CEF01F0FF0E115EFF0E125A000EB7
:10028600135A000E145A000E155A000E165A000E76
:10029600175A000E185A000ECF6E000ECE6ECD8085
:1002A6009EA058EF01F05AEF01F053EF01F0CD9008
:1002B6009E901850171016101510141006E113040E
:1002C600D8B068EF01F06AEF01F03EEF01F011508F
:1002D6000008116E000E1254126E010E1354136EA6
:1002E600000E1454146E000E1554156E000E16549E
:1002F600166E000E1754176E000E1854186E000E68
:10030600CF6E11C0CEFFCD809EA08CEF01F08EEF98
:1003160001F087EF01F0CD909E901200010E196E4C
:10032600000E1A6E000E1B6E020EE6EC01F0010EB8
:10033600196E000E1A6E000E1B6E280EE6EC01F00A
:100346006AEC02F0010E196E000E1A6E000E1B6E9C
:100356000F0EE6EC01F0050E206E000EC2EC02F068
:100366002B0E1B6EFEEC02F0040E206E010EC2EC8C
:1003760002F0220E1B6EFEEC02F0E80E0D6E030E6E
:100386000E6E000E0F6E000E106E1BEC01F06AEC86
:1003960002F0010E1B6EFEEC02F0000E206E010E46
:1003A600C2EC02F0120E1B6EFEEC02F0E80E0D6EB1
:1003B600030E0E6E000E0F6E000E106E1BEC01F09B
:1003C6006AEC02F012001F6E4E0EE2EC02F0D890BC
:1003D6001A341C6E19C01DF0D8901D36D8901D36E3
:1003E600D8901D361F50F00B1D101C101B10040951
:1003F6002FEC03F0010E0D6E000E0E6E000E0F6E4A
:10040600000E106E1BEC01F01938E842F80B2FECC9
:1004160003F0D8901A341C6E19C01DF0D8901D3602
:10042600D8901D36D8901D361FC01EF00F0E1E1612
:100436001E38F00B1D101C101B1004092FEC03F0C6
:10044600010E0D6E000E0E6E000E0F6E000E106E7B
:100456001BEC01F01938E842F80B2FEC03F042ECE4
:1004660003F01200000E096E000E0A6E000E0B6EEF
:10047600000E0C6E01A042EF02F044EF02F04CEFCA
:1004860002F00550092606500A2207500B22085092
:100496000C22D8900536063607360836D890043230
:1004A6000332023201320150021003100410D8A4A4
:1004B6005FEF02F061EF02F03DEF02F009C001F0DC
:1004C6000AC002F00BC003F00CC004F012004E0E7E
:1004D600E2EC02F00C0E2FEC03F0010E0D6E000E96
:1004E6000E6E000E0F6E000E106E1BEC01F0080E65
:1004F6002FEC03F01C0E2FEC03F0010E0D6E000E18
:100506000E6E000E0F6E000E106E1BEC01F0180E34
:100516002FEC03F0010E0D6E000E0E6E000E0F6E28
:10052600000E106E1BEC01F042EC03F012001A6E86
:100536001A50F00B0D092FEC03F01A50F00B0809B6
:100546002FEC03F01AC019F00F0E19161938F00B1C
:100556000D092FEC03F01AC019F00F0E19161938F1
:10056600F00B08092FEC03F0010E0D6E000E0E6E57
:10057600000E0F6E000E106E1BEC01F01200216EC5
:100586002150D8A4C9EF02F0CBEF02F0D7EF02F06A
:10059600010E196E000E1A6E000E1B6E2050800999
:1005A600E6EC01F0E1EF02F0010E196E000E1A6E94
:1005B600000E1B6E2050C009E6EC01F01200016E21
:1005C600C5809EA6E9EF02F0EBEF02F0E4EF02F041
:1005D6009E9601C0C9FF9EA6F3EF02F0F5EF02F06A
:1005E600EEEF02F09E96C5BCFBEF02F0FDEF02F0C7
:1005F600ECEF02F012004E0EE2EC02F00AEF03F00E
:100606001BC0F6FF0800F5509AEC02F01B2A1BC02F
:10061600F6FF0800F5500009D8A414EF03F016EF12
:1006260003F003EF03F042EC03F01200FC0ED316C6
:10063600D38E700ED3129B8CF28EF28CF19ED09ECE
:10064600C78EC79C500EC86EC68AC650F00B0809E6
:10065600C66E948694881200016E01C0C9FF9EA6DC
:1006660037EF03F039EF03F032EF03F09E96C5BC87
:100676003FEF03F041EF03F030EF03F01200C584C3
:100686009EA648EF03F04AEF03F043EF03F09E9671
:10069600120019EC03F091EC01F050EF03F000EFBB
:1006A60000F0000EF86E020EF76E00014CEF03F03C
:020000040030CA
:0E000000FF081F1EFF8381FF03C003E00340C3
:00000001FF
