:020000040000FA
:0400000071EF00F0AC
:100008005082D9CF1AF0DACF1BF0F2A20EEF00F02F
:1000180010EF00F04DEF00F0D59E000ED76E000EE9
:10002800D66ED89081300F0B456EF292F2A21FEF78
:1000380000F021EF00F01AEF00F081CF19F01E0E4A
:100048001916D8901936D8901936D8901934451001
:10005800456EF292D58EAA0E4518D8B436EF00F048
:1000680038EF00F045EF00F0460E4124D96EDA6A09
:10007800000EDA2245C0DFFF412A010E436E4DEF24
:1000880000F0000E436E000E426E000E456E000E2C
:10009800446EF2A452EF00F054EF00F06BEF00F062
:1000A800F294402A050E4018D8A45DEF00F05FEFE7
:1000B80000F06BEF00F04350D8A465EF00F067EF55
:1000C80000F06BEF00F0BEEC03F0000E406E1BC0BA
:0E00D800DAFF1AC0D9FF50921100AAEF04F00F
:100200000043617073746F6E650053656E696F7241
:1002100000200000B00ECD6E9D9028C01CF029C0BB
:100220001DF02AC01EF02BC01FF0E80E206E030E3A
:10023000216E000E226E000E236EF0EC02F01C50B8
:100240002C6E1D502D6E1E502E6E1F502F6E306A5C
:10025000316A326A336A4BEF01F0FF0E2C5EFF0EFB
:100260002D5A000E2E5A000E2F5A000E305A000E34
:10027000315A000E325A000E335A000ECF6E000E65
:10028000CE6ECD809EA047EF01F049EF01F042EF26
:1002900001F0CD909E9033503210311030102F105D
:1002A00006E12E04D8B057EF01F059EF01F02DEF21
:1002B00001F02C5000082C6E000E2D542D6E010EF6
:1002C0002E542E6E000E2F542F6E000E3054306EB2
:1002D000000E3154316E000E3254326E000E335423
:1002E000336E000ECF6E2CC0CEFFCD809EA07BEF74
:1002F00001F07DEF01F076EF01F0CD909E901200BD
:10030000B00ECD6E9D900DC001F00EC002F00FC07A
:1003100003F010C004F0E80E056E030E066E000E2A
:10032000076E000E086E25EC03F00150116E0250AE
:10033000126E0350136E0450146E156A166A176A13
:10034000186AC1EF01F0FF0E115EFF0E125A000E87
:10035000135A000E145A000E155A000E165A000EAB
:10036000175A000E185A000ECF6E000ECE6ECD80BA
:100370009EA0BDEF01F0BFEF01F0B8EF01F0CD900E
:100380009E901850171016101510141006E1130443
:10039000D8B0CDEF01F0CFEF01F0A3EF01F0115095
:1003A0000008116E000E1254126E010E1354136EDB
:1003B000000E1454146E000E1554156E000E1654D3
:1003C000166E000E1754176E000E1854186E000E9D
:1003D000CF6E11C0CEFFCD809EA0F1EF01F0F3EF04
:1003E00001F0ECEF01F0CD909E901200EEEC03F0E6
:1003F000BAEC02F0070ED56EF294000ED76E000E26
:10040000D66EF28AD58E4350D8B409EF02F00BEFC6
:1004100002F003EF02F04450D8A411EF02F013EF02
:1004200002F01FEF02F0450E4124D96EDA6A000E89
:10043000DA22DF50446E000E436E31EF02F0450EBB
:100440004124D96EDA6A000EDA224450DE18D8A4AC
:100450002CEF02F02EEF02F031EF02F0422A1BEFF8
:1004600002F0020E4218D8A438EF02F03AEF02F080
:1004700003EF02F0450E41241F6E206A000E202279
:100480005AEC03F0000E436E000E446E000E426EF6
:10049000000E416E000E406E000E3F6E000E3E6E6E
:1004A000460E3E24D96E000E3F20DA6EDF6A3E4AC9
:1004B0003F2A3FBE65EF02F03F5009E10A0E3E5C65
:1004C000D8A065EF02F067EF02F050EF02F003EF03
:1004D00002F071EF00F03A6E4E0E4CEC04F0D89042
:1004E0003534376E34C038F0D8903836D890383636
:1004F000D89038363A50F00B3810371036100409BF
:1005000084EC04F0010E286E000E296E000E2A6E97
:10051000000E2B6E0AEC01F03438E842F80B84EC44
:1005200004F0D8903534376E34C038F0D89038366F
:10053000D8903836D89038363AC039F00F0E391680
:100540003938F00B381037103610040984EC04F0F9
:10055000010E286E000E296E000E2A6E000E2B6E04
:100560000AEC01F03438E842F80B84EC04F0B7EC04
:1005700004F01200010E346E000E356E000E366E61
:10058000020E6BEC02F0010E346E000E356E000EA2
:10059000366E280E6BEC02F08EEC03F0010E346E1A
:1005A000000E356E000E366E0F0E6BEC02F0050E6F
:1005B0003B6E000E0EEC04F00A0E1F6E020E206E53
:1005C0005AEC03F0040E3B6E010E0EEC04F0010E2B
:1005D0001F6E020E206E5AEC03F08EEC03F0120038
:1005E000000E246E000E256E000E266E000E276E85
:1005F0001CA0FDEF02F0FFEF02F007EF03F0205028
:100600002426215025222250262223502722D8900A
:100610002036213622362336D8901F321E321D3224
:100620001C321C501D101E101F10D8A41AEF03F00E
:100630001CEF03F0F8EF02F024C01CF025C01DF001
:1006400026C01EF027C01FF01200000E096E000E1B
:100650000A6E000E0B6E000E0C6E01A032EF03F05E
:1006600034EF03F03CEF03F00550092606500A2250
:1006700007500B2208500C22D89005360636073654
:100680000836D8900432033202320132015002108F
:1006900003100410D8A44FEF03F051EF03F02DEF37
:1006A00003F009C001F00AC002F00BC003F00CC057
:1006B00004F012004E0E4CEC04F073EF03F01FC078
:1006C000F6FF20C0F7FFF86A010EF76403D00800B8
:1006D000F55005D0F6CFE9FFF7CFEAFFEF502EEC4B
:1006E00004F01F4A202A1FC0F6FF20C0F7FFF86A57
:1006F000010EF76403D00800F55005D0F6CFE9FFEE
:10070000F7CFEAFFEF500009D8A489EF03F08BEF91
:1007100003F05FEF03F0B7EC04F012004E0E4CEC68
:1007200004F00C0E84EC04F0010E286E000E296E0D
:10073000000E2A6E000E2B6E0AEC01F0080E84ECFF
:1007400004F01C0E84EC04F0010E286E000E296EDD
:10075000000E2A6E000E2B6E0AEC01F0180E84ECCF
:1007600004F0010E286E000E296E000E2A6E000E97
:100770002B6E0AEC01F0B7EC04F012004E0E68ECA0
:1007800004F00C0E97EC04F0010E0D6E000E0E6ED0
:10079000000E0F6E000E106E80EC01F0080E97EC4C
:1007A00004F01C0E97EC04F0010E0D6E000E0E6EA0
:1007B000000E0F6E000E106E80EC01F0180E97EC1C
:1007C00004F0010E0D6E000E0E6E000E0F6E000E88
:1007D000106E80EC01F0C1EC04F01200FC0ED31698
:1007E000D38E700ED3129B8CF28EF28CF19E0F0E74
:1007F000C112D09E93501F09936E8150E00B816E01
:10080000F288F18CC78EC79C500EC86EC68AC6503F
:10081000F00B0809C66E9486948812003C6E3C501A
:10082000D8A415EF04F017EF04F023EF04F0010E45
:10083000346E000E356E000E366E3B5080096BEC48
:1008400002F02DEF04F0010E346E000E356E000E36
:10085000366E3B50C0096BEC02F012001E6E1E504B
:10086000F00B0D0984EC04F01E50F00B080984EC29
:1008700004F01EC01DF00F0E1D161D38F00B0D09E3
:1008800084EC04F01EC01DF00F0E1D161D38F00B79
:10089000080984EC04F012001C6EC5809EA653EF7C
:1008A00004F055EF04F04EEF04F09E961CC0C9FF13
:1008B0009EA65DEF04F05FEF04F058EF04F09E9603
:1008C000C5BC65EF04F067EF04F056EF04F01200CA
:1008D000016EC5809EA66FEF04F071EF04F06AEF21
:1008E00004F09E9601C0C9FF9EA679EF04F07BEF4D
:1008F00004F074EF04F09E96C5BC81EF04F083EF22
:1009000004F072EF04F012001C6E1CC0C9FF9EA61A
:100910008CEF04F08EEF04F087EF04F09E96C5BCD8
:1009200094EF04F096EF04F085EF04F01200016EEE
:1009300001C0C9FF9EA69FEF04F0A1EF04F09AEF5B
:1009400004F09E96C5BCA7EF04F0A9EF04F098EF61
:1009500004F0120000EE40F0100EEE6AE806FDE131
:1009600050905092000EF86E0001F6EF01F0C58431
:100970009EA6BDEF04F0BFEF04F0B8EF04F09E9622
:100980001200C5849EA6C7EF04F0C9EF04F0C2EFC1
:0609900004F09E96120027
:020000040030CA
:0E000000FF081F1EFF8381FF03C003E00340C3
:00000001FF
