:020000040000FA
:04000000A0EF01F07C
:100008005582D9CF1BF0DACF1CF0F3CF1DF0F4CF17
:100018001EF0F2A212EF00F014EF00F026EF01F04C
:10002800D89081300F0B536EF2928EEF00F0F2A44D
:1000380020EF00F022EF00F08EEF00F0F2944D2A4E
:10004800030E4D18D8A42BEF00F02DEF00F08EEF23
:1000580000F05150D8A433EF00F035EF00F08EEFE8
:1000680000F04C50D8B43BEF00F03DEF00F08EEFBD
:1000780000F05EEC05F0000E4C6E000E4D6E000EAA
:10008800516E000E526E000E506E000E4E6E000E37
:100098004F6E000E206E000E1F6E000E226E000EB8
:1000A800216E1FC001F020C002F0000E046E0B0E7E
:1000B800036E50EC06F0800E0124196E000E02202B
:1000C8001A6E21501924D96E22501A20DA6EDF6A6E
:1000D800214A222A22BE7AEF00F0225009E10B0EB3
:1000E800215CD8A07AEF00F07CEF00F055EF00F02B
:1000F8001F4A202A20BE8AEF00F0205009E1050E91
:100108001F5CD8A08AEF00F08CEF00F051EF00F0F0
:1001180096EF01F0F2A293EF00F095EF00F01BEFDD
:1001280000F081CF19F01E0E1916D8901936D89004
:100138001936D89019345310536EF292AA0E5318E8
:10014800D8B4A9EF00F0ABEF00F0C7EF00F0BB0E9A
:100158005318D8B4B2EF00F0B4EF00F0C7EF00F0D6
:100168004E500B0D800EF324196E000EF4201A6EFB
:100178004F501924D96E000E1A20DA6E53C0DFFFD3
:100188004F2A26EF01F0BB0E5318D8A4CEEF00F08B
:10019800D0EF00F0D7EF00F04E2A000E4F6E010EA0
:1001A800516E26EF01F0000E546E000E516E000ED7
:1001B800506E000E536E000E526E000E4D6E000E05
:1001C8004E6E000E4F6E000E246E000E236E000E53
:1001D800266E000E256E23C001F024C002F0000E2A
:1001E800046E0B0E036E50EC06F0800E0124196E9F
:1001F800000E02201A6E25501924D96E26501A2096
:10020800DA6EDF6A254A262A26BE14EF01F0265048
:1002180009E10B0E255CD8A014EF01F016EF01F0F0
:10022800EFEF00F0234A242A24BE24EF01F02450E3
:1002380009E1050E235CD8A024EF01F026EF01F0B8
:10024800EBEF00F0F2A42BEF01F02DEF01F096EFA9
:1002580001F0F2944D2A020E4D6435EF01F037EFAC
:1002680001F096EF01F05150D8A43DEF01F03FEFB7
:1002780001F096EF01F04C50D8B445EF01F047EF8C
:1002880001F096EF01F05EEC05F0000E4C6E000EEA
:100298004D6E000E516E000E526E000E506E000E26
:1002A8004E6E000E4F6E000E286E000E276E000E6A
:1002B8002A6E000E296E27C001F028C002F0000E39
:1002C800046E0B0E036E50EC06F0800E0124196EBE
:1002D800000E02201A6E29501924D96E2A501A20AD
:1002E800DA6EDF6A294A2A2A2ABE84EF01F02A50E8
:1002F80009E10B0E295CD8A084EF01F086EF01F02C
:100308005FEF01F0274A282A28BE94EF01F0285011
:1003180009E1050E275CD8A094EF01F096EF01F0F3
:100328005BEF01F01EC0F4FF1DC0F3FF1CC0DAFF35
:100338001BC0D9FF5592110004EF06F0004361700D
:1003480073746F6E650053656E696F7200200000EC
:10035800ACEC03F05AEC04F0070ED56EF294000EE4
:10036800D76E000ED66EF28AD58E5150D8B4BFEF34
:1003780001F0C1EF01F0B9EF01F05250D8A4C7EF76
:1003880001F0C9EF01F0CFEF01F0010E526E000E3F
:10039800516ED4EF01F043EC02F0506E000E516E36
:1003A800010E5064DAEF01F0DCEF01F0B9EF01F073
:1003B8005450D8A4E2EF01F0E4EF01F0B9EF01F0F6
:1003C8004E500B0D750EF3242E6E000EF4202F6E7A
:1003D800FAEC04F0010E4C6E010E546E000E516ED4
:1003E800000E526E000E506E000E4F6E000E4E6ED6
:1003F800000E4D6E000E0001BA6F000EB96F000EB0
:10040800BC6F000EBB6FB9C02BF0BAC02CF0000E49
:100418002E6E0B0E2D6E2AEC06F0800E2B2400019A
:10042800B76F000E2C20B86FBB51B725D96EBC51E1
:10043800B821DA6EDF6ABB4BBC2BBCBF2DEF02F0D4
:10044800BC5109E10B0EBB5DD8A02DEF02F02FEFD8
:1004580002F007EF02F0B94BBA2BBABF3DEF02F03A
:10046800BA5109E1050EB95DD8A03DEF02F03FEFA2
:1004780002F003EF02F0B9EF01F0A0EF01F0000E77
:10048800376E000E3B6E010E3A6E000E396E000E8E
:10049800386EACEF02F038C02BF039C02CF0000EEB
:1004A8002E6E0B0E2D6E2AEC06F0800E2B24316E6C
:1004B800000E2C20326E3B503124D96E000E3220B3
:1004C800DA6E4E500B0D750EF324346E000EF420C8
:1004D800356E3B503424E16E000E3520E26EDE505E
:1004E800E618D8A47AEF02F07CEF02F07FEF02F072
:1004F8003B2A81EF02F0000E3A6E3A50D8B487EFEB
:1005080002F089EF02F09FEF02F04E500B0D750ECE
:10051800F324316E000EF420326E3B503124D96E34
:10052800000E3220DA6EDF50D8A49DEF02F09FEF64
:1005380002F04FEF02F03A50D8B4A5EF02F0A7EF5F
:1005480002F0A8EF02F0372A000E3B6E384A392A2B
:100558004E50316E326A3150385C3950800A336EF1
:100568003250800A3358D8A0BCEF02F0BEEF02F038
:1005780081EF02F037501200B00ECD6E9D9037C05B
:100588002BF038C02CF039C02DF03AC02EF0E80E10
:100598002F6E030E306E000E316E000E326E90EC30
:1005A80004F02B503B6E2C503C6E2D503D6E2E505F
:1005B8003E6E3F6A406A416A426A01EF03F0FF0EED
:1005C8003B5EFF0E3C5A000E3D5A000E3E5A000E8E
:1005D8003F5A000E405A000E415A000E425A000E71
:1005E800CF6E000ECE6ECD809EA0FDEF02F0FFEF25
:1005F80002F0F8EF02F0CD909E904250411040106A
:100608003F103E1006E13D04D8B00DEF03F00FEFA8
:1006180003F0E3EF02F03B5000083B6E000E3C5441
:100628003C6E010E3D543D6E000E3E543E6E000E73
:100638003F543F6E000E4054406E000E4154416ED0
:10064800000E4254426E000ECF6E3BC0CEFFCD80EE
:100658009EA031EF03F033EF03F02CEF03F0CD90C1
:100668009E901200B00ECD6E9D900DC001F00EC090
:1006780002F00FC003F010C004F0E80E056E030E80
:10068800066E000E076E000E086EC5EC04F00150F1
:10069800116E0250126E0350136E0450146E156AD8
:1006A800166A176A186A77EF03F0FF0E115EFF0EDD
:1006B800125A000E135A000E145A000E155A000E44
:1006C800165A000E175A000E185A000ECF6E000E5A
:1006D800CE6ECD809EA073EF03F075EF03F06EEF42
:1006E80003F0CD909E901850171016101510141086
:1006F80006E11304D8B083EF03F085EF03F059EF58
:1007080003F011500008116E000E1254126E010E03
:100718001354136E000E1454146E000E1554156EF7
:10072800000E1654166E000E1754176E000E18544D
:10073800186E000ECF6E11C0CEFFCD809EA0A7EF21
:1007480003F0A9EF03F0A2EF03F0CD909E90120002
:10075800FC0ED316D38E700ED3129B8CF28EF28CB5
:10076800F19E0F0EC112D09E93501F09936E8150B7
:10077800E00B816EF288F18CC78EC79C500EC86E54
:10078800C68AC650F00B0809C66E94869488000E77
:10079800346E000E336E000E366E000E356E33C0AA
:1007A8002BF034C02CF0000E2E6E0B0E2D6E2AECA2
:1007B80006F0800E2B24316E000E2C20326E355040
:1007C8003124D96E36503220DA6EDF6A354A362A3D
:1007D80036BEF8EF03F0365009E10B0E355CD8A0B1
:1007E800F8EF03F0FAEF03F0D3EF03F0334A342ABB
:1007F80034BE08EF04F0345009E1050E335CD8A08C
:1008080008EF04F00AEF04F0CFEF03F01200496E8E
:100818004E0ECCEC05F0D8904434466E43C047F0F9
:10082800D8904736D8904736D89047364950F00B7D
:10083800471046104510040917EC06F0010E376EF4
:10084800000E386E000E396E000E3A6EC0EC02F0E3
:100858004338E842F80B17EC06F0D8904434466E5B
:1008680043C047F0D8904736D8904736D890473697
:1008780049C048F00F0E48164838F00B471046108C
:100888004510040917EC06F0010E376E000E386E9D
:10089800000E396E000E3A6EC0EC02F04338E842A2
:1008A800F80B17EC06F063EC06F01200010E436E2D
:1008B800000E446E000E456E020E0BEC04F0010EA5
:1008C800436E000E446E000E456E280E0BEC04F0CD
:1008D8002EEC05F0010E436E000E446E000E456EC0
:1008E8000F0E0BEC04F0050E4A6E000E8EEC05F0B0
:1008F8004E0E2E6E030E2F6EFAEC04F0040E4A6EA6
:10090800010E8EEC05F0450E2E6E030E2F6EFAECDE
:1009180004F02EEC05F01200000E336E000E346E5B
:10092800000E356E000E366E2BA09DEF04F09FEF83
:1009380004F0A7EF04F02F50332630503422315002
:10094800352232503622D8902F363036313632366C
:10095800D8902E322D322C322B322B502C102D10B9
:100968002E10D8A4BAEF04F0BCEF04F098EF04F00E
:1009780033C02BF034C02CF035C02DF036C02EF02B
:100988001200000E096E000E0A6E000E0B6E000EAD
:100998000C6E01A0D2EF04F0D4EF04F0DCEF04F009
:1009A8000550092606500A2207500B2208500C222F
:1009B800D8900536063607360836D8900432033202
:1009C800023201320150021003100410D8A4EFEFD4
:1009D80004F0F1EF04F0CDEF04F009C001F00AC013
:1009E80002F00BC003F00CC004F012004E0ECCEC69
:1009F80005F013EF05F02EC0F6FF2FC0F7FFF86AD9
:100A0800010EF76403D00800F55005D0F6CFE9FFD2
:100A1800F7CFEAFFEF50AEEC05F02E4A2F2A2EC092
:100A2800F6FF2FC0F7FFF86A010EF76403D008003D
:100A3800F55005D0F6CFE9FFF7CFEAFFEF500009F0
:100A4800D8A429EF05F02BEF05F0FFEF04F063ECD5
:100A580006F012004E0ECCEC05F00C0E17EC06F06A
:100A6800010E376E000E386E000E396E000E3A6EAB
:100A7800C0EC02F0080E17EC06F01C0E17EC06F09E
:100A8800010E376E000E386E000E396E000E3A6E8B
:100A9800C0EC02F0180E17EC06F0010E376E000ECF
:100AA800386E000E396E000E3A6EC0EC02F063EC40
:100AB80006F012004E0EE8EC05F00C0E3DEC06F0C8
:100AC800010E0D6E000E0E6E000E0F6E000E106EF3
:100AD80036EC03F0080E3DEC06F01C0E3DEC06F07B
:100AE800010E0D6E000E0E6E000E0F6E000E106ED3
:100AF80036EC03F0180E3DEC06F0010E0D6E000EFC
:100B08000E6E000E0F6E000E106E36EC03F06DECDC
:100B180006F012004B6E4B50D8A495EF05F097EFF6
:100B280005F0A3EF05F0010E436E000E446E000EB3
:100B3800456E4A5080090BEC04F0ADEF05F0010E4C
:100B4800436E000E446E000E456E4A50C0090BEC11
:100B580004F012002D6E2D50F00B0D0917EC06F065
:100B68002D50F00B080917EC06F02DC02CF00F0ED5
:100B78002C162C38F00B0D0917EC06F02DC02CF0B4
:100B88000F0E2C162C38F00B080917EC06F0120083
:100B98002B6EC5809EA6D3EF05F0D5EF05F0CEEFFE
:100BA80005F09E962BC0C9FF9EA6DDEF05F0DFEF8E
:100BB80005F0D8EF05F09E96C5BCE5EF05F0E7EF28
:100BC80005F0D6EF05F01200016EC5809EA6EFEF86
:100BD80005F0F1EF05F0EAEF05F09E9601C0C9FFB8
:100BE8009EA6F9EF05F0FBEF05F0F4EF05F09E96F1
:100BF800C5BC01EF06F003EF06F0F2EF05F01200B6
:100C080000EE80F0370EEE6AE806FDE100EE4CF0EB
:100C1800090EEE6AE806FDE155905592000EF86E51
:100C28000001ACEF01F02B6E2BC0C9FF9EA61FEF91
:100C380006F021EF06F01AEF06F09E96C5BC27EFE6
:100C480006F029EF06F018EF06F012002B502D02DF
:100C5800F3CF2FF0F4CF30F02B502E02F350302684
:100C68002C502D02F35030262FC02BF030C02CF022
:100C78001200016E01C0C9FF9EA645EF06F047EFBE
:100C880006F040EF06F09E96C5BC4DEF06F04FEF1C
:100C980006F03EEF06F0120001500302F3CF05F014
:100CA800F4CF06F001500402F35006260250030266
:100CB800F350062605C001F006C002F01200C584F4
:100CC8009EA669EF06F06BEF06F064EF06F09E96BD
:100CD8001200C5849EA673EF06F075EF06F06EEF5E
:060CE80006F09E961200CA
:020000040030CA
:0E000000FF081F1EFF8381FF03C003E00340C3
:00000001FF
