:04000000EAEF00F033
:100008005682D9CF1AF0DACF1BF0F2A20EEF00F029
:1000180010EF00F0A5EF00F0D89081300F0B4B6E79
:10002800F29258EF00F0F2A41CEF00F01EEF00F07F
:1000380058EF00F0F294462A050E4618D8A427EF88
:1000480000F029EF00F058EF00F04950D8A42FEF46
:1000580000F031EF00F058EF00F0BCEC03F0000EB8
:10006800466E000E496E000E4A6E000E486E000E77
:10007800476E000E1D6E000E1C6E1C504C0FD96E84
:10008800DA6ADF6A1C4A1D2A1DBE54EF00F01D50B3
:1000980009E10A0E1C5CD8A054EF00F056EF00F0FE
:1000A80041EF00F0E4EF00F0F2A25DEF00F05FEF47
:1000B80000F017EF00F081CF19F01E0E1916D89036
:1000C8001936D8901936D89019344B104B6EF292D5
:1000D800AA0E4B18D8B473EF00F075EF00F080EF5C
:1000E80000F047504C0FD96EDA6A4BC0DFFF472A41
:1000F800010E496EA5EF00F0000E496E000E486E25
:10010800000E4B6E000E4A6E000E466E000E476ED5
:10011800000E1F6E000E1E6E1E504C0FD96EDA6A4E
:10012800DF6A1E4A1F2A1FBEA3EF00F01F5009E115
:100138000A0E1E5CD8A0A3EF00F0A5EF00F090EF28
:1001480000F0F2A4AAEF00F0ACEF00F0E4EF00F04A
:10015800F294462A050E4618D8A4B5EF00F0B7EF7A
:1001680000F0E4EF00F04950D8A4BDEF00F0BFEF75
:1001780000F0E4EF00F0BCEC03F0000E466E000E59
:10018800496E000E4A6E000E486E000E476E000E55
:10019800216E000E206E20504C0FD96EDA6ADF6A8D
:1001A800204A212A21BEE2EF00F0215009E10A0E7F
:1001B800205CD8A0E2EF00F0E4EF00F0CFEF00F011
:1001C8001BC0DAFF1AC0D9FF56921100A8EF04F03D
:100200000043617073746F6E650053656E696F7241
:1002100000200000B00ECD6E9D902EC022F02FC0A9
:1002200023F030C024F031C025F0E80E266E030E16
:10023000276E000E286E000E296EEEEC02F02250A2
:10024000326E2350336E2450346E2550356E366A2C
:10025000376A386A396A4BEF01F0FF0E325EFF0EE3
:10026000335A000E345A000E355A000E365A000E1C
:10027000375A000E385A000E395A000ECF6E000E53
:10028000CE6ECD809EA047EF01F049EF01F042EF26
:1002900001F0CD909E90395038103710361035103F
:1002A00006E13404D8B057EF01F059EF01F02DEF1B
:1002B00001F032500008326E000E3354336E010EDE
:1002C0003454346E000E3554356E000E3654366E8E
:1002D000000E3754376E000E3854386E000E395405
:1002E000396E000ECF6E32C0CEFFCD809EA07BEF68
:1002F00001F07DEF01F076EF01F0CD909E901200BD
:10030000B00ECD6E9D900DC001F00EC002F00FC07A
:1003100003F010C004F0E80E056E030E066E000E2A
:10032000076E000E086E23EC03F00150116E0250B0
:10033000126E0350136E0450146E156A166A176A13
:10034000186AC1EF01F0FF0E115EFF0E125A000E87
:10035000135A000E145A000E155A000E165A000EAB
:10036000175A000E185A000ECF6E000ECE6ECD80BA
:100370009EA0BDEF01F0BFEF01F0B8EF01F0CD900E
:100380009E901850171016101510141006E1130443
:10039000D8B0CDEF01F0CFEF01F0A3EF01F0115095
:1003A0000008116E000E1254126E010E1354136EDB
:1003B000000E1454146E000E1554156E000E1654D3
:1003C000166E000E1754176E000E1854186E000E9D
:1003D000CF6E11C0CEFFCD809EA0F1EF01F0F3EF04
:1003E00001F0ECEF01F0CD909E901200ECEC03F0E8
:1003F000B4EC02F0070ED56EF294000ED76E000E2C
:10040000D66EF28AD58E4950D8B409EF02F00BEFC0
:1004100002F003EF02F04A50D8A411EF02F013EFFC
:1004200002F01DEF02F047504B0FD96EDA6ADF5031
:100430004A6E000E496E2DEF02F047504B0FD96EF9
:10044000DA6A4A50DE18D8A428EF02F02AEF02F048
:100450002DEF02F0482A19EF02F0020E4818D8A436
:1004600034EF02F036EF02F003EF02F047504B0F8B
:10047000436E43C025F0266A58EC03F0000E496E27
:10048000000E4A6E000E486E000E476E000E466E5D
:10049000000E456E000E446E44504C0FD96EDA6A61
:1004A000DF6A444A452A45BE5FEF02F0455009E144
:1004B0000A0E445CD8A05FEF02F061EF02F04CEF4F
:1004C00002F003EF02F0EAEF00F0406E4E0E4AEC4D
:1004D00004F0D8903B343D6E3AC03EF0D8903E36A2
:1004E000D8903E36D8903E364050F00B3E103D102E
:1004F0003C10040982EC04F0010E2E6E000E2F6EEB
:10050000000E306E000E316E0AEC01F03A38E8420F
:10051000F80B82EC04F0D8903B343D6E3AC03EF0CC
:10052000D8903E36D8903E36D8903E3640C03FF008
:100530000F0E3F163F38F00B3E103D103C100409E3
:1005400082EC04F0010E2E6E000E2F6E000E306E47
:10055000000E316E0AEC01F03A38E842F80B82ECFA
:1005600004F0B5EC04F01200010E3A6E000E3B6E82
:10057000000E3C6E020E65EC02F0010E3A6E000EAB
:100580003B6E000E3C6E280E65EC02F08CEC03F026
:10059000010E3A6E000E3B6E000E3C6E0F0E65ECC7
:1005A00002F0050E416E000E0CEC04F00A0E256EF2
:1005B0002550D8A4020E266E58EC03F0040E416EAE
:1005C000010E0CEC04F0010E256E2550D8A4020E8D
:1005D000266E58EC03F08CEC03F01200000E2A6E2D
:1005E000000E2B6E000E2C6E000E2D6E22A0FBEF67
:1005F00002F0FDEF02F005EF03F026502A26275007
:100600002B2228502C2229502D22D89026362736EE
:1006100028362936D89025322432233222322250ED
:10062000231024102510D8A418EF03F01AEF03F0BC
:10063000F6EF02F02AC022F02BC023F02CC024F0E9
:100640002DC025F01200000E096E000E0A6E000E7D
:100650000B6E000E0C6E01A030EF03F032EF03F0D2
:100660003AEF03F00550092606500A2207500B22E4
:1006700008500C22D8900536063607360836D89032
:10068000043203320232013201500210031004100E
:10069000D8A44DEF03F04FEF03F02BEF03F009C0A8
:1006A00001F00AC002F00BC003F00CC004F012000D
:1006B0004E0E4AEC04F071EF03F025C0F6FF26C0A1
:1006C000F7FFF86A010EF76403D00800F55005D073
:1006D000F6CFE9FFF7CFEAFFEF502CEC04F0254A04
:1006E000262A25C0F6FF26C0F7FFF86A010EF76438
:1006F00003D00800F55005D0F6CFE9FFF7CFEAFFA9
:10070000EF500009D8A487EF03F089EF03F05DEF05
:1007100003F0B5EC04F012004E0E4AEC04F00C0E9F
:1007200082EC04F0010E2E6E000E2F6E000E306E65
:10073000000E316E0AEC01F0080E82EC04F01C0E83
:1007400082EC04F0010E2E6E000E2F6E000E306E45
:10075000000E316E0AEC01F0180E82EC04F0010E6E
:100760002E6E000E2F6E000E306E000E316E0AECF3
:1007700001F0B5EC04F012004E0E66EC04F00C0E25
:1007800095EC04F0010E0D6E000E0E6E000E0F6E55
:10079000000E106E80EC01F0080E95EC04F01C0EBB
:1007A00095EC04F0010E0D6E000E0E6E000E0F6E35
:1007B000000E106E80EC01F0180E95EC04F0010EA6
:1007C0000D6E000E0E6E000E0F6E000E106E80ECA1
:1007D00001F0BFEC04F01200FC0ED316D38E700EA5
:1007E000D3129B8CF28EF28CF19E0F0EC112D09E12
:1007F00093501F09936E8150E00B816EF288F18C4B
:10080000C78EC79C500EC86EC68AC650F00B08092A
:10081000C66E948694881200426E4250D8A413EF9C
:1008200004F015EF04F021EF04F0010E3A6E000E13
:100830003B6E000E3C6E4150800965EC02F02BEFE0
:1008400004F0010E3A6E000E3B6E000E3C6E4150FD
:10085000C00965EC02F01200246E2450F00B0D0963
:1008600082EC04F02450F00B080982EC04F024C060
:1008700023F00F0E23162338F00B0D0982EC04F041
:1008800024C023F00F0E23162338F00B080982EC46
:1008900004F01200226EC5809EA651EF04F053EFC3
:1008A00004F04CEF04F09E9622C0C9FF9EA65BEFB9
:1008B00004F05DEF04F056EF04F09E96C5BC63EFC4
:1008C00004F065EF04F054EF04F01200016EC580EF
:1008D0009EA66DEF04F06FEF04F068EF04F09E96B3
:1008E00001C0C9FF9EA677EF04F079EF04F072EF24
:1008F00004F09E96C5BC7FEF04F081EF04F070EF2A
:1009000004F01200226E22C0C9FF9EA68AEF04F0F6
:100910008CEF04F085EF04F09E96C5BC92EF04F0D6
:1009200094EF04F083EF04F01200016E01C0C9FFE0
:100930009EA69DEF04F09FEF04F098EF04F09E96C2
:10094000C5BCA5EF04F0A7EF04F096EF04F0120089
:1009500000EE46F0100EEE6AE806FDE15690569263
:10096000000EF86E0001F6EF01F0C5849EA6BBEF05
:1009700004F0BDEF04F0B6EF04F09E961200C584BB
:100980009EA6C5EF04F0C7EF04F0C0EF04F09E96FA
:02099000120053
:020000040030CA
:0E000000FF081F1EFF8381FF03C003E00340C3
:00000001FF
