:040000006FEF00F0AE
:100008004E82D9CF1AF0DACF1BF0F2A20EEF00F031
:1000180010EF00F04BEF00F0D59E000ED76E000EEB
:10002800D66ED89081300F0B436EF292F2A21FEF7A
:1000380000F021EF00F01AEF00F081CF19F01E0E4A
:100048001916D8901936D8901936D8901934431003
:10005800436EF292D58EAA0E4318D8B436EF00F04C
:1000680038EF00F043EF00F03F50440FD96EDA6AE2
:1000780043C0DFFF3F2A010E416E4BEF00F0000E38
:10008800416E000E406E000E436E000E426EF2A4EA
:1000980050EF00F052EF00F069EF00F0F2943E2AC2
:1000A800050E3E18D8A45BEF00F05DEF00F069EF95
:1000B80000F04150D8A463EF00F065EF00F069EF5D
:1000C80000F0A3EC03F0000E3E6E1BC0DAFF1AC06E
:0A00D800D9FF4E9211008FEF04F0E3
:100200000043617073746F6E650053656E696F7241
:1002100000200000B00ECD6E9D9028C01CF029C0BB
:100220001DF02AC01EF02BC01FF0E80E206E030E3A
:10023000216E000E226E000E236ED5EC02F01C50D3
:100240002C6E1D502D6E1E502E6E1F502F6E306A5C
:10025000316A326A336A4BEF01F0FF0E2C5EFF0EFB
:100260002D5A000E2E5A000E2F5A000E305A000E34
:10027000315A000E325A000E335A000ECF6E000E65
:10028000CE6ECD809EA047EF01F049EF01F042EF26
:1002900001F0CD909E9033503210311030102F105D
:1002A00006E12E04D8B057EF01F059EF01F02DEF21
:1002B00001F02C5000082C6E000E2D542D6E010EF6
:1002C0002E542E6E000E2F542F6E000E3054306EB2
:1002D000000E3154316E000E3254326E000E335423
:1002E000336E000ECF6E2CC0CEFFCD809EA07BEF74
:1002F00001F07DEF01F076EF01F0CD909E901200BD
:10030000B00ECD6E9D900DC001F00EC002F00FC07A
:1003100003F010C004F0E80E056E030E066E000E2A
:10032000076E000E086E0AEC03F00150116E0250C9
:10033000126E0350136E0450146E156A166A176A13
:10034000186AC1EF01F0FF0E115EFF0E125A000E87
:10035000135A000E145A000E155A000E165A000EAB
:10036000175A000E185A000ECF6E000ECE6ECD80BA
:100370009EA0BDEF01F0BFEF01F0B8EF01F0CD900E
:100380009E901850171016101510141006E1130443
:10039000D8B0CDEF01F0CFEF01F0A3EF01F0115095
:1003A0000008116E000E1254126E010E1354136EDB
:1003B000000E1454146E000E1554156E000E1654D3
:1003C000166E000E1754176E000E1854186E000E9D
:1003D000CF6E11C0CEFFCD809EA0F1EF01F0F3EF04
:1003E00001F0ECEF01F0CD909E901200D3EC03F001
:1003F0009BEC02F0070ED56EF294000ED76E000E45
:10040000D66EF28AD58E4150D8B409EF02F00BEFC8
:1004100002F003EF02F04250D8A411EF02F013EF04
:1004200002F01DEF02F03F50430FD96EDA6ADF5041
:10043000426E000E416E2DEF02F03F50430FD96E19
:10044000DA6A4250DE18D8A428EF02F02AEF02F050
:100450002DEF02F0402A19EF02F0020E4018D8A446
:1004600034EF02F036EF02F003EF02F03F50430F9B
:100470003D6E3DC01FF0206A3FEC03F0000E416E60
:10048000000E426E000E406E000E3F6E000E3E6E7D
:1004900003EF02F06FEF00F03A6E4E0E31EC04F015
:1004A000D8903534376E34C038F0D8903836D8907C
:1004B0003836D89038363A50F00B3810371036109E
:1004C000040969EC04F0010E286E000E296E000E7E
:1004D0002A6E000E2B6E0AEC01F03438E842F80B5D
:1004E00069EC04F0D8903534376E34C038F0D890C9
:1004F0003836D8903836D89038363AC039F00F0EA2
:1005000039163938F00B381037103610040969ECF9
:1005100004F0010E286E000E296E000E2A6E000EE9
:100520002B6E0AEC01F03438E842F80B69EC04F069
:100530009CEC04F01200010E346E000E356E000EBD
:10054000366E020E4CEC02F0010E346E000E356E6B
:10055000000E366E280E4CEC02F073EC03F0010E28
:10056000346E000E356E000E366E0F0E4CEC02F03F
:10057000050E3B6E000EF3EC03F00A0E1F6E1F50CB
:10058000D8A4020E206E3FEC03F0040E3B6E010E69
:10059000F3EC03F0010E1F6E1F50D8A4020E206E64
:1005A0003FEC03F073EC03F01200000E246E000E1B
:1005B000256E000E266E000E276E1CA0E2EF02F0E4
:1005C000E4EF02F0ECEF02F0205024262150252227
:1005D0002250262223502722D89020362136223638
:1005E0002336D8901F321E321D321C321C501D1073
:1005F0001E101F10D8A4FFEF02F001EF03F0DDEF93
:1006000002F024C01CF025C01DF026C01EF027C03B
:100610001FF01200000E096E000E0A6E000E0B6E27
:10062000000E0C6E01A017EF03F019EF03F021EF9D
:1006300003F00550092606500A2207500B220850E5
:100640000C22D8900536063607360836D890043284
:100650000332023201320150021003100410D8A4F8
:1006600034EF03F036EF03F012EF03F009C001F0AE
:100670000AC002F00BC003F00CC004F012004E0ED2
:1006800031EC04F058EF03F01FC0F6FF20C0F7FF75
:10069000F86A010EF76403D00800F55005D0F6CFD4
:1006A000E9FFF7CFEAFFEF5013EC04F01F4A202ACE
:1006B0001FC0F6FF20C0F7FFF86A010EF76403D0F1
:1006C0000800F55005D0F6CFE9FFF7CFEAFFEF506D
:1006D0000009D8A46EEF03F070EF03F044EF03F0CD
:1006E0009CEC04F012004E0E31EC04F00C0E69ECA0
:1006F00004F0010E286E000E296E000E2A6E000E08
:100700002B6E0AEC01F0080E69EC04F01C0E69EC8B
:1007100004F0010E286E000E296E000E2A6E000EE7
:100720002B6E0AEC01F0180E69EC04F0010E286E35
:10073000000E296E000E2A6E000E2B6E0AEC01F0E0
:100740009CEC04F012004E0E4DEC04F00C0E7CEC10
:1007500004F0010E0D6E000E0E6E000E0F6E000EF8
:10076000106E80EC01F0080E7CEC04F01C0E7CECAA
:1007700004F0010E0D6E000E0E6E000E0F6E000ED8
:10078000106E80EC01F0180E7CEC04F0010E0D6E82
:10079000000E0E6E000E0F6E000E106E80EC01F05B
:1007A000A6EC04F01200FC0ED316D38E700ED312FA
:1007B0009B8CF28EF28CF19E0F0EC112D09E935044
:1007C0001F09936E8150E00B816EF288F18CC78E09
:1007D000C79C500EC86EC68AC650F00B0809C66E7C
:1007E0009486948812003C6E3C50D8A4FAEF03F033
:1007F000FCEF03F008EF04F0010E346E000E356ECE
:10080000000E366E3B5080094CEC02F012EF04F003
:10081000010E346E000E356E000E366E3B50C00970
:100820004CEC02F012001E6E1E50F00B0D0969EC2C
:1008300004F01E50F00B080969EC04F01EC01DF016
:100840000F0E1D161D38F00B0D0969EC04F01EC0CB
:100850001DF00F0E1D161D38F00B080969EC04F091
:1008600012001C6EC5809EA638EF04F03AEF04F02B
:1008700033EF04F09E961CC0C9FF9EA642EF04F021
:1008800044EF04F03DEF04F09E96C5BC4AEF04F03F
:100890004CEF04F03BEF04F01200016EC5809EA601
:1008A00054EF04F056EF04F04FEF04F09E9601C0B1
:1008B000C9FF9EA65EEF04F060EF04F059EF04F06C
:1008C0009E96C5BC66EF04F068EF04F057EF04F0A5
:1008D00012001C6E1CC0C9FF9EA671EF04F073EFDE
:1008E00004F06CEF04F09E96C5BC79EF04F07BEF4A
:1008F00004F06AEF04F01200016E01C0C9FF9EA669
:1009000084EF04F086EF04F07FEF04F09E96C5BC00
:100910008CEF04F08EEF04F07DEF04F0120000EE97
:100920003EF0100EEE6AE806FDE14E904E92000E8B
:10093000F86E0001F6EF01F0C5849EA6A2EF04F068
:10094000A4EF04F09DEF04F09E961200C5849EA6CD
:10095000ACEF04F0AEEF04F0A7EF04F09E961200A7
:020000040030CA
:0E000000FF081F1EFF8381FF03C003E00340C3
:00000001FF
